:100000000C945C000C9479000C9479000C947900A9
:100010000C9479000C9479000C9479000C9479007C
:100020000C9479000C9479000C9479000C9479006C
:100030000C9479000C9479000C9479000C9479005C
:100040000C94AE000C9479000C9479000C94790017
:100050000C9479000C9479000C9479000C9479003C
:100060000C9479000C947900000000080002010053
:100070000003040700000000000000000102040863
:100080001020408001020408102001020408102002
:10009000040404040404040402020202020203032E
:1000A0000303030300000000250028002B000000CC
:1000B0000000240027002A0011241FBECFEFD8E043
:1000C000DEBFCDBF11E0A0E0B1E0E6E1F5E002C0A7
:1000D00005900D92A030B107D9F721E0A0E0B1E082
:1000E00001C01D92AB30B207E1F70E949F000C9453
:1000F00089020C940000089561E08AE00C941C02CF
:1001000080910001909101018F3F910529F024F029
:1001100010920101109200016091000170910101A3
:100120006D5C7F4F70930101609300018AE00E9433
:10013000940160E177E280E090E00C941D010E9460
:1001400059010E947B000E947C00C0E0D0E00E9428
:1001500080002097E1F30E940000F9CF1F920F92D8
:100160000FB60F9211242F933F938F939F93AF93CA
:10017000BF938091030190910401A0910501B0917A
:1001800006013091020123E0230F2D3720F4019660
:10019000A11DB11D05C026E8230F0296A11DB11DAA
:1001A000209302018093030190930401A093050121
:1001B000B09306018091070190910801A091090177
:1001C000B0910A010196A11DB11D80930701909382
:1001D0000801A0930901B0930A01BF91AF919F91CB
:1001E0008F913F912F910F900FBE0F901F901895F8
:1001F0003FB7F8948091070190910801A0910901FF
:10020000B0910A0126B5A89B05C02F3F19F00196B1
:10021000A11DB11D3FBFBA2FA92F982F8827820F8C
:10022000911DA11DB11DBC01CD0142E0660F771FDC
:10023000881F991F4A95D1F708958F929F92AF9288
:10024000BF92CF92DF92EF92FF926B017C010E94EE
:10025000F8004B015C01C114D104E104F10401F187
:100260000E9488020E94F800DC01CB0188199909DC
:10027000AA09BB09883E9340A105B10560F321E0BE
:10028000C21AD108E108F10888EE880E83E0981EB2
:10029000A11CB11CC114D104E104F10419F7DBCF96
:1002A000FF90EF90DF90CF90BF90AF909F908F9096
:1002B0000895789484B5826084BD84B5816084BDDE
:1002C00085B5826085BD85B5816085BDEEE6F0E0CF
:1002D000808181608083E1E8F0E01082808182602B
:1002E0008083808181608083E0E8F0E080818160AC
:1002F0008083E1EBF0E0808184608083E0EBF0E0DC
:10030000808181608083EAE7F0E08081846080837F
:100310008081826080838081816080838081806829
:1003200080831092C10008951F93CF93DF93182FFD
:10033000EB0161E00E941C02209711F460E004C010
:10034000CF3FD10539F461E0812FDF91CF911F912B
:100350000C945802E12FF0E0E859FF4FE491E330AC
:10036000F9F048F4E130B9F0E230A1F584B58062EB
:1003700084BDC8BD34C0E730E9F0E83019F1E4309D
:1003800049F580918000806280938000D0938B003B
:10039000C0938A0024C084B5806884BDC7BD1FC0D7
:1003A00080918000806880938000D0938900C09302
:1003B000880015C08091B00080688093B000C09321
:1003C000B3000DC08091B00080628093B000C093F4
:1003D000B40005C0C038D1050CF0B5CFAFCFDF9168
:1003E000CF911F910895833081F028F4813099F0E6
:1003F0008230A1F008958730A9F08830B9F08430B8
:10040000D1F4809180008F7D03C0809180008F7730
:1004100080938000089584B58F7702C084B58F7D66
:1004200084BD08958091B0008F7703C08091B000A3
:100430008F7D8093B0000895CF93DF9390E0FC010F
:10044000E458FF4F2491FC01E057FF4F849188232B
:1004500061F190E0880F991FFC01E255FF4FC591B3
:10046000D491FC01EC55FF4FA591B491611109C0E5
:100470009FB7F8948881209582238883EC912E235E
:100480000BC0623061F49FB7F8943881822F809559
:1004900083238883EC912E2B2C939FBF06C08FB7AC
:1004A000F894E8812E2B28838FBFDF91CF91089598
:1004B0001F93CF93DF93282F30E0F901E859FF4FC6
:1004C0008491F901E458FF4FD491F901E057FF4FAF
:1004D000C491CC23C9F0162F81110E94F301EC2F97
:1004E000F0E0EE0FFF1FEC55FF4FA591B4918FB7D1
:1004F000F894111105C09C91ED2FE095E92302C0FD
:10050000EC91ED2BEC938FBFDF91CF911F9108956C
:060510000895F894FFCFEE
:00000001FF
