:100000000C945D000C9485000C9485000C94850084
:100010000C9485000C9485000C9485000C9485004C
:100020000C9485000C9485000C9485000C9485003C
:100030000C9485000C9485000C9485000C9485002C
:100040000C943E040C9485000C9427020C945902E5
:100050000C9485000C9485000C9485000C9485000C
:100060000C9485000C94850000000008000201003B
:100070000003040700000000000000000102040863
:100080001020408001020408102001020408102002
:10009000040404040404040402020202020203032E
:1000A0000303030300000000250028002B000000CC
:1000B0000000240027002A00890211241FBECFEF70
:1000C000D8E0DEBFCDBF11E0A0E0B1E0EEECFFE094
:1000D00002C005900D92A432B107D9F721E0A4E245
:1000E000B1E001C01D92A53DB207E1F710E0CDE5FA
:1000F000D0E004C02197FE010E94DF07CC35D10774
:10010000C9F70E94ED000C94E5070C9400000895D7
:1001100026E040E855E260E070E08FE291E00E9466
:10012000C20161E0809102010C94150561E08091AB
:1001300002010E945105809100010E94CF04BC0180
:10014000990F880B990B0E949606AB01BC01409356
:10015000260150932701609328017093290122E022
:1001600030E08FE291E00E942C0420E030E04AEF82
:1001700053E46091260170912701809128019091AC
:1001800029010E94460787FD06C00E9488047093DB
:100190002E0160932D0180912B0190912C012091D3
:1001A0002D0130912E01009799F0A901481B590BA0
:1001B000CA0150932501409324018C529140853F00
:1001C000914030F490912A0181E0892780932A019F
:1001D00030932C0120932B0108950E9494040E94D7
:1001E00087000E948800CAE2D1E00E949600209712
:1001F000E1F30E942A01F9CFFC01918D228D892F14
:1002000090E0805C9F4F821B91098F73992708951E
:10021000FC01918D828D981731F0828DE80FF11DD0
:10022000858D90E008958FEF9FEF0895FC01918DEB
:10023000828D981761F0828DDF01A80FB11D5D9648
:100240008C91928D9F5F9F73928F90E008958FEFB6
:100250009FEF08958FE792E0892B49F080E090E0CE
:10026000892B29F00E947F0281110C9400000895CF
:10027000FC01848DDF01A80FB11DA35ABF4F2C9143
:10028000848D90E001968F739927848FA689B78912
:100290002C93A089B1898C9180648C93938D848DEB
:1002A000981306C00288F389E02D80818F7D8083BA
:1002B0000895CF93DF93EC01888D8823C9F0EA89F4
:1002C000FB89808185FD05C0A889B9898C9186FD4F
:1002D0000FC00FB607FCF5CF808185FFF2CFA8894C
:1002E000B9898C9185FFEDCFCE010E943801E7CF0F
:1002F000DF91CF910895EF92FF920F931F93CF93C9
:10030000DF93EC0181E0888F9B8D8C8D981305C065
:10031000E889F989808185FD24C0F62E0B8D10E0D7
:100320000F5F1F4F0F731127E02E8C8DE8120CC04A
:100330000FB607FCFACFE889F989808185FFF5CFF0
:10034000CE010E943801F1CF8B8DFE01E80FF11D27
:10035000E35AFF4FF0820B8FEA89FB89808180622C
:1003600007C0EE89FF896083E889F989808180640C
:10037000808381E090E0DF91CF911F910F91FF90FA
:10038000EF900895CF92DF92EF92FF921F93CF9359
:10039000DF93EC016A017B01122FE889F98982E081
:1003A00080834115514E61057105B1F060E079E03F
:1003B0008DE390E0A70196010E94BD07DA01C90113
:1003C0000197A109B109B695A79597958795AC01B5
:1003D000411580E15807A8F0E889F989108260E8A2
:1003E00074E88EE190E0A70196010E94BD07BA0172
:1003F000A901415051096109710976956795579591
:100400004795EC85FD855083EE85FF854083188EEA
:10041000EC89FD891083EA89FB8980818061808372
:10042000EA89FB89808188608083EA89FB898081F1
:1004300080688083EA89FB8980818F7D8083DF915A
:10044000CF911F91FF90EF90DF90CF9008951F9272
:100450000F920FB60F9211242F938F939F93EF93C8
:10046000FF93E0913F01F09140018081E0914501CF
:10047000F091460182FD12C09081809148018F5F0A
:100480008F7320914901821751F0E0914801F0E00B
:10049000E15DFE4F958F8093480101C08081FF91FF
:1004A000EF919F918F912F910F900FBE0F901F9002
:1004B00018951F920F920FB60F9211242F933F930E
:1004C0004F935F936F937F938F939F93AF93BF935C
:1004D000EF93FF938FE291E00E943801FF91EF913B
:1004E000BF91AF919F918F917F916F915F914F914C
:1004F0003F912F910F900FBE0F901F9018958FE294
:1005000091E00E94FC0021E0892B09F420E0822F79
:100510000895EFE2F1E01382128288EE93E0A0E00A
:10052000B0E084839583A683B78389E091E09183CB
:10053000808385EC90E09587848784EC90E09787B2
:10054000868780EC90E0918B808B81EC90E0938BA0
:10055000828B82EC90E0958B848B86EC90E0978B7D
:10056000868B118E128E138E148E0895CF92DF9289
:10057000EF92FF920F931F93CF93DF936C017A0159
:100580008B01C0E0D0E0CE15DF0589F0D8016D9178
:100590008D01D601ED91FC910190F081E02DC60115
:1005A0000995892B11F47E0102C02196ECCFC70179
:1005B000DF91CF911F910F91FF90EF90DF90CF903F
:1005C00008956115710579F0FB0101900020E9F7AC
:1005D0003197AF01461B570BDC01ED91FC91028076
:1005E000F381E02D099480E090E00895DC01ED9125
:1005F000FC910190F081E02D099465E171E00C948B
:10060000E1024F925F926F927F92EF92FF920F936F
:100610001F93CF93DF93CDB7DEB7A1970FB6F894B2
:10062000DEBF0FBECDBF7C01FA01CB0119A2223083
:1006300008F42AE08E010F5D1F4F422E512C612CD1
:10064000712CBF01A30192010E94BD07F901CA01EB
:10065000015011096A3014F4605D01C0695CD80171
:100660006C93232B242B252B61F7B801C7010E9423
:10067000E102A1960FB6F894DEBF0FBECDBFDF91A9
:10068000CF911F910F91FF90EF907F906F905F90AF
:100690004F9008954F925F926F927F928F929F92A8
:1006A000AF92BF92CF92DF92EF92FF92CF93DF9300
:1006B000EC016A017B01B22E9A01AB01C701B601C0
:1006C0000E94B807882319F068E171E027C026016D
:1006D0003701E89477F82FEF3FEF4FE75FE7C3016B
:1006E000B2010E94B80781110DC02FEF3FEF4FE715
:1006F0005FE7C301B2010E94EE0518161CF46CE11D
:1007000071E00CC02FEF3FEF4FE75FE4C701B60188
:100710000E94460718169CF460E271E0CE01DF915A
:10072000CF91FF90EF90DF90CF90BF90AF909F90D0
:100730008F907F906F905F904F900C94E1022FEF1D
:100740003FEF4FE75FECC701B6010E94EE0587FD62
:10075000E3CF20E030E0A901C701B6010E94EE0519
:1007600087FF0AC06DE2CE010E94F6024C01F7FA43
:10077000F094F7F8F09402C0812C912CA12C60E049
:1007800070E080E09FE3AB1441F020E030E040E215
:1007900051E40E94F305A394F6CF9B01AC01C7017D
:1007A000B6010E9482052B013C010E9465066B0187
:1007B0007C010E9494069B01AC01C301B2010E941E
:1007C00081052B013C012AE0B701A601CE010E9460
:1007D00001037C01E80CF91CBB2031F06EE2CE0174
:1007E0000E94F602E80EF91EDB2CDD2029F120E044
:1007F00030E040E251E4C301B2010E944B072B01FB
:100800003C010E9465064B01A12CB12C2AE0B501E8
:10081000A401CE010E940103E80EF91EC501B40136
:100820000E9494069B01AC01C301B2010E948105A4
:100830002B013C01DA94D9CFC701DF91CF91FF9012
:10084000EF90DF90CF90BF90AF909F908F907F9070
:100850006F905F904F9008950F931F93CF93DF9306
:10086000EC010E944A038C01CE010E94FD02800F20
:10087000911FDF91CF911F910F9108951F920F92B9
:100880000FB60F9211242F933F938F939F93AF93A3
:10089000BF938091CD019091CE01A091CF01B091F5
:1008A000D0013091CC0123E0230F2D3720F40196A5
:1008B000A11DB11D05C026E8230F0296A11DB11D83
:1008C0002093CC018093CD019093CE01A093CF01D2
:1008D000B093D0018091D1019091D201A091D30128
:1008E000B091D4010196A11DB11D8093D1019093C7
:1008F000D201A093D301B093D401BF91AF919F9146
:100900008F913F912F910F900FBE0F901F901895D0
:100910002FB7F8946091CD017091CE018091CF01F5
:100920009091D0012FBF0895789484B5826084BDE2
:1009300084B5816084BD85B5826085BD85B58160E3
:1009400085BDEEE6F0E0808181608083E1E8F0E043
:100950001082808182608083808181608083E0E872
:10096000F0E0808181608083E1EBF0E08081846051
:100970008083E0EBF0E0808181608083EAE7F0E053
:1009800080818460808380818260808380818160B7
:1009900080838081806880831092C10008958E30AA
:1009A00008F08E5087702091040190E4299F9001F7
:1009B0001124822B80937C0080917A008064809344
:1009C0007A0080917A0086FDFCCF8091780020919A
:1009D000790090E0922B0895833081F028F48130E3
:1009E00099F08230A1F008958730A9F08830B9F0ED
:1009F0008430D1F4809180008F7D03C0809180008D
:100A00008F7780938000089584B58F7702C084B576
:100A10008F7D84BD08958091B0008F7703C0809151
:100A2000B0008F7D8093B0000895CF93DF9390E066
:100A3000FC01E458FF4F2491FC01E057FF4F8491E3
:100A4000882361F190E0880F991FFC01E255FF4F68
:100A5000C591D491FC01EC55FF4FA591B491611162
:100A600009C09FB7F8948881209582238883EC91F0
:100A70002E230BC0623061F49FB7F8943881822F27
:100A8000809583238883EC912E2B2C939FBF06C0E7
:100A90008FB7F894E8812E2B28838FBFDF91CF91F9
:100AA00008951F93CF93DF93282F30E0F901E85981
:100AB000FF4F8491F901E458FF4FD491F901E057B9
:100AC000FF4FC491CC23C9F0162F81110E94EC0472
:100AD000EC2FF0E0EE0FFF1FEC55FF4FA591B49106
:100AE0008FB7F894111105C09C91ED2FE095E92383
:100AF00002C0EC91ED2BEC938FBFDF91CF911F9152
:100B000008955058BB27AA270E9499050C940C07FA
:100B10000E94FE0638F00E94050720F039F49F3F3E
:100B200019F426F40C94FB060EF4E095E7FB0C9404
:100B3000F506E92F0E941D0758F3BA1762077307DD
:100B40008407950720F079F4A6F50C943F070EF47E
:100B5000E0950B2EBA2FA02D0B01B90190010C01CD
:100B6000CA01A0011124FF27591B99F0593F50F4E5
:100B7000503E68F11A16F040A22F232F342F44273D
:100B8000585FF3CF469537952795A795F040539535
:100B9000C9F77EF41F16BA0B620B730B840BBAF005
:100BA0009150A1F0FF0FBB1F661F771F881FC2F770
:100BB0000EC0BA0F621F731F841F48F48795779584
:100BC0006795B795F7959E3F08F0B0CF9395880F3E
:100BD00008F09927EE0F9795879508950E94D10602
:100BE00008F481E008950E9407060C940C070E9407
:100BF000050758F00E94FE0640F029F45F3F29F0F7
:100C00000C94F50651110C9440070C94FB060E94BD
:100C10001D0768F39923B1F3552391F3951B550BE9
:100C2000BB27AA2762177307840738F09F5F5F4FBF
:100C3000220F331F441FAA1FA9F335D00E2E3AF0FE
:100C4000E0E832D091505040E695001CCAF72BD016
:100C5000FE2F29D0660F771F881FBB1F2617370767
:100C60004807AB07B0E809F0BB0B802DBF01FF2799
:100C700093585F4F3AF09E3F510578F00C94F5067B
:100C80000C9440075F3FE4F3983ED4F38695779544
:100C90006795B795F7959F5FC9F7880F911D969552
:100CA000879597F90895E1E0660F771F881FBB1FAE
:100CB000621773078407BA0720F0621B730B840B5B
:100CC000BA0BEE1F88F7E09508950E94250788F07B
:100CD0009F5798F0B92F9927B751B0F0E1F0660F00
:100CE000771F881F991F1AF0BA95C9F714C0B13041
:100CF00091F00E943F07B1E008950C943F07672FE1
:100D0000782F8827B85F39F0B93FCCF3869577956F
:100D10006795B395D9F73EF4909580957095619558
:100D20007F4F8F4F9F4F0895E89409C097FB3EF483
:100D300090958095709561957F4F8F4F9F4F992328
:100D4000A9F0F92F96E9BB279395F69587957795A6
:100D50006795B795F111F8CFFAF4BB0F11F460FF66
:100D60001BC06F5F7F4F8F4F9F4F16C0882311F0BE
:100D700096E911C0772321F09EE8872F762F05C0D2
:100D8000662371F096E8862F70E060E02AF09A956D
:100D9000660F771F881FDAF7880F9695879597F962
:100DA0000895990F0008550FAA0BE0E8FEEF1616FC
:100DB0001706E807F907C0F012161306E407F5074F
:100DC00098F0621B730B840B950B39F40A2661F0C3
:100DD000232B242B252B21F408950A2609F4A14066
:100DE000A6958FEF811D811D089597F99F6780E873
:100DF00070E060E008959FEF80EC089500240A946D
:100E00001616170618060906089500240A941216E5
:100E10001306140605060895092E0394000C11F418
:100E2000882352F0BB0F40F4BF2B11F460FF04C0C5
:100E30006F5F7F4F8F4F9F4F089557FD9058440F1E
:100E4000551F59F05F3F71F04795880F97FB991F29
:100E500061F09F3F79F087950895121613061406E6
:100E6000551FF2CF4695F1DF08C016161706180673
:100E7000991FF1CF86957105610508940895E8944E
:100E8000BB2766277727CB0197F908950E94D106E3
:100E900008F48FEF08950E945E070C940C070E94DF
:100EA000FE0638F00E94050720F0952311F00C94FF
:100EB000F5060C94FB0611240C9440070E941D07B4
:100EC00070F3959FC1F3950F50E0551F629FF0019D
:100ED000729FBB27F00DB11D639FAA27F00DB11DB6
:100EE000AA1F649F6627B00DA11D661F829F22273F
:100EF000B00DA11D621F739FB00DA11D621F839FC6
:100F0000A00D611D221F749F3327A00D611D231F9B
:100F1000849F600D211D822F762F6A2F11249F57E9
:100F200050409AF0F1F088234AF0EE0FFF1FBB1FEC
:100F3000661F771F881F91505040A9F79E3F5105AB
:100F400080F00C94F5060C9440075F3FE4F3983E64
:100F5000D4F3869577956795B795F795E7959F5F55
:100F6000C1F7FE2B880F911D9695879597F90895E7
:100F70000E94D106880B990B0895A1E21A2EAA1B94
:100F8000BB1BFD010DC0AA1FBB1FEE1FFF1FA21739
:100F9000B307E407F50720F0A21BB30BE40BF50B36
:100FA000661F771F881F991F1A9469F760957095BF
:100FB000809590959B01AC01BD01CF010895EE0F86
:0E0FC000FF1F0590F491E02D0994F894FFCFE7
:100FCE000E000B0001000000007B01B602FC0016B3
:100FDE0001080159010D0A006E616E00696E66000E
:040FEE006F766600B4
:00000001FF
